{
  "_format": "hh-sol-artifact-1",
  "contractName": "TimeCapsule",
  "sourceName": "contracts/TimeCapsule.sol",
  "abi": [
    {
      "anonymous": false,
      "inputs": [
        {
          "indexed": true,
          "internalType": "uint256",
          "name": "id",
          "type": "uint256"
        },
        {
          "indexed": true,
          "internalType": "address",
          "name": "creator",
          "type": "address"
        },
        {
          "indexed": false,
          "internalType": "uint256",
          "name": "unlockTime",
          "type": "uint256"
        }
      ],
      "name": "CapsuleCreated",
      "type": "event"
    },
    {
      "inputs": [
        {
          "internalType": "uint256",
          "name": "",
          "type": "uint256"
        }
      ],
      "name": "capsules",
      "outputs": [
        {
          "internalType": "address",
          "name": "creator",
          "type": "address"
        },
        {
          "internalType": "string",
          "name": "message",
          "type": "string"
        },
        {
          "internalType": "uint256",
          "name": "unlockTime",
          "type": "uint256"
        },
        {
          "internalType": "uint256",
          "name": "id",
          "type": "uint256"
        }
      ],
      "stateMutability": "view",
      "type": "function"
    },
    {
      "inputs": [
        {
          "internalType": "string",
          "name": "_message",
          "type": "string"
        },
        {
          "internalType": "uint256",
          "name": "_unlockTime",
          "type": "uint256"
        }
      ],
      "name": "createCapsule",
      "outputs": [
        {
          "internalType": "uint256",
          "name": "",
          "type": "uint256"
        }
      ],
      "stateMutability": "nonpayable",
      "type": "function"
    },
    {
      "inputs": [
        {
          "internalType": "uint256",
          "name": "_id",
          "type": "uint256"
        }
      ],
      "name": "getCapsule",
      "outputs": [
        {
          "components": [
            {
              "internalType": "address",
              "name": "creator",
              "type": "address"
            },
            {
              "internalType": "string",
              "name": "message",
              "type": "string"
            },
            {
              "internalType": "uint256",
              "name": "unlockTime",
              "type": "uint256"
            },
            {
              "internalType": "uint256",
              "name": "id",
              "type": "uint256"
            }
          ],
          "internalType": "struct TimeCapsule.Capsule",
          "name": "",
          "type": "tuple"
        }
      ],
      "stateMutability": "view",
      "type": "function"
    },
    {
      "inputs": [
        {
          "internalType": "address",
          "name": "_user",
          "type": "address"
        }
      ],
      "name": "getUserCapsules",
      "outputs": [
        {
          "internalType": "uint256[]",
          "name": "",
          "type": "uint256[]"
        }
      ],
      "stateMutability": "view",
      "type": "function"
    },
    {
      "inputs": [],
      "name": "nextCapsuleId",
      "outputs": [
        {
          "internalType": "uint256",
          "name": "",
          "type": "uint256"
        }
      ],
      "stateMutability": "view",
      "type": "function"
    },
    {
      "inputs": [
        {
          "internalType": "address",
          "name": "",
          "type": "address"
        },
        {
          "internalType": "uint256",
          "name": "",
          "type": "uint256"
        }
      ],
      "name": "userCapsules",
      "outputs": [
        {
          "internalType": "uint256",
          "name": "",
          "type": "uint256"
        }
      ],
      "stateMutability": "view",
      "type": "function"
    }
  ],
  "bytecode": "0x6080604052348015600f57600080fd5b506110d68061001f6000396000f3fe608060405234801561001057600080fd5b50600436106100625760003560e01c8063366636f7146100675780633aac385814610097578063517bbf46146100c7578063a0d79fb5146100fa578063ae3cfaed1461012a578063d5e0d88e14610148575b600080fd5b610081600480360381019061007c9190610719565b610178565b60405161008e919061080e565b60405180910390f35b6100b160048036038101906100ac919061085c565b61020f565b6040516100be919061098b565b60405180910390f35b6100e160048036038101906100dc919061085c565b610337565b6040516100f19493929190610a15565b60405180910390f35b610114600480360381019061010f9190610a61565b61040f565b6040516101219190610aa1565b60405180910390f35b610132610440565b60405161013f9190610aa1565b60405180910390f35b610162600480360381019061015d9190610bf1565b610446565b60405161016f9190610aa1565b60405180910390f35b6060600160008373ffffffffffffffffffffffffffffffffffffffff1673ffffffffffffffffffffffffffffffffffffffff16815260200190815260200160002080548060200260200160405190810160405280929190818152602001828054801561020357602002820191906000526020600020905b8154815260200190600101908083116101ef575b50505050509050919050565b610217610669565b6000808381526020019081526020016000206040518060800160405290816000820160009054906101000a900473ffffffffffffffffffffffffffffffffffffffff1673ffffffffffffffffffffffffffffffffffffffff1673ffffffffffffffffffffffffffffffffffffffff16815260200160018201805461029a90610c7c565b80601f01602080910402602001604051908101604052809291908181526020018280546102c690610c7c565b80156103135780601f106102e857610100808354040283529160200191610313565b820191906000526020600020905b8154815290600101906020018083116102f657829003601f168201915b50505050508152602001600282015481526020016003820154815250509050919050565b60006020528060005260406000206000915090508060000160009054906101000a900473ffffffffffffffffffffffffffffffffffffffff169080600101805461038090610c7c565b80601f01602080910402602001604051908101604052809291908181526020018280546103ac90610c7c565b80156103f95780601f106103ce576101008083540402835291602001916103f9565b820191906000526020600020905b8154815290600101906020018083116103dc57829003601f168201915b5050505050908060020154908060030154905084565b6001602052816000526040600020818154811061042b57600080fd5b90600052602060002001600091509150505481565b60025481565b600042821161048a576040517f08c379a000000000000000000000000000000000000000000000000000000000815260040161048190610d1f565b60405180910390fd5b60008351116104ce576040517f08c379a00000000000000000000000000000000000000000000000000000000081526004016104c590610d8b565b60405180910390fd5b6000600254905060405180608001604052803373ffffffffffffffffffffffffffffffffffffffff1681526020018581526020018481526020018281525060008083815260200190815260200160002060008201518160000160006101000a81548173ffffffffffffffffffffffffffffffffffffffff021916908373ffffffffffffffffffffffffffffffffffffffff160217905550602082015181600101908161057a9190610f57565b506040820151816002015560608201518160030155905050600160003373ffffffffffffffffffffffffffffffffffffffff1673ffffffffffffffffffffffffffffffffffffffff1681526020019081526020016000208190806001815401808255809150506001900390600052602060002001600090919091909150553373ffffffffffffffffffffffffffffffffffffffff16817f94c04aecc42f013fcb329d54ab685a53f3a2a84902997bdbb2addc2af8e5b9e38560405161063f9190610aa1565b60405180910390a36002600081548092919061065a90611058565b91905055508091505092915050565b6040518060800160405280600073ffffffffffffffffffffffffffffffffffffffff1681526020016060815260200160008152602001600081525090565b6000604051905090565b600080fd5b600080fd5b600073ffffffffffffffffffffffffffffffffffffffff82169050919050565b60006106e6826106bb565b9050919050565b6106f6816106db565b811461070157600080fd5b50565b600081359050610713816106ed565b92915050565b60006020828403121561072f5761072e6106b1565b5b600061073d84828501610704565b91505092915050565b600081519050919050565b600082825260208201905092915050565b6000819050602082019050919050565b6000819050919050565b61078581610772565b82525050565b6000610797838361077c565b60208301905092915050565b6000602082019050919050565b60006107bb82610746565b6107c58185610751565b93506107d083610762565b8060005b838110156108015781516107e8888261078b565b97506107f3836107a3565b9250506001810190506107d4565b5085935050505092915050565b6000602082019050818103600083015261082881846107b0565b905092915050565b61083981610772565b811461084457600080fd5b50565b60008135905061085681610830565b92915050565b600060208284031215610872576108716106b1565b5b600061088084828501610847565b91505092915050565b610892816106db565b82525050565b600081519050919050565b600082825260208201905092915050565b60005b838110156108d25780820151818401526020810190506108b7565b60008484015250505050565b6000601f19601f8301169050919050565b60006108fa82610898565b61090481856108a3565b93506109148185602086016108b4565b61091d816108de565b840191505092915050565b60006080830160008301516109406000860182610889565b506020830151848203602086015261095882826108ef565b915050604083015161096d604086018261077c565b506060830151610980606086018261077c565b508091505092915050565b600060208201905081810360008301526109a58184610928565b905092915050565b6109b6816106db565b82525050565b600082825260208201905092915050565b60006109d882610898565b6109e281856109bc565b93506109f28185602086016108b4565b6109fb816108de565b840191505092915050565b610a0f81610772565b82525050565b6000608082019050610a2a60008301876109ad565b8181036020830152610a3c81866109cd565b9050610a4b6040830185610a06565b610a586060830184610a06565b95945050505050565b60008060408385031215610a7857610a776106b1565b5b6000610a8685828601610704565b9250506020610a9785828601610847565b9150509250929050565b6000602082019050610ab66000830184610a06565b92915050565b600080fd5b600080fd5b7f4e487b7100000000000000000000000000000000000000000000000000000000600052604160045260246000fd5b610afe826108de565b810181811067ffffffffffffffff82111715610b1d57610b1c610ac6565b5b80604052505050565b6000610b306106a7565b9050610b3c8282610af5565b919050565b600067ffffffffffffffff821115610b5c57610b5b610ac6565b5b610b65826108de565b9050602081019050919050565b82818337600083830152505050565b6000610b94610b8f84610b41565b610b26565b905082815260208101848484011115610bb057610baf610ac1565b5b610bbb848285610b72565b509392505050565b600082601f830112610bd857610bd7610abc565b5b8135610be8848260208601610b81565b91505092915050565b60008060408385031215610c0857610c076106b1565b5b600083013567ffffffffffffffff811115610c2657610c256106b6565b5b610c3285828601610bc3565b9250506020610c4385828601610847565b9150509250929050565b7f4e487b7100000000000000000000000000000000000000000000000000000000600052602260045260246000fd5b60006002820490506001821680610c9457607f821691505b602082108103610ca757610ca6610c4d565b5b50919050565b7f556e6c6f636b2074696d65206d75737420626520696e2074686520667574757260008201527f6500000000000000000000000000000000000000000000000000000000000000602082015250565b6000610d096021836109bc565b9150610d1482610cad565b604082019050919050565b60006020820190508181036000830152610d3881610cfc565b9050919050565b7f4d6573736167652063616e6e6f7420626520656d707479000000000000000000600082015250565b6000610d756017836109bc565b9150610d8082610d3f565b602082019050919050565b60006020820190508181036000830152610da481610d68565b9050919050565b60008190508160005260206000209050919050565b60006020601f8301049050919050565b600082821b905092915050565b600060088302610e0d7fffffffffffffffffffffffffffffffffffffffffffffffffffffffffffffffff82610dd0565b610e178683610dd0565b95508019841693508086168417925050509392505050565b6000819050919050565b6000610e54610e4f610e4a84610772565b610e2f565b610772565b9050919050565b6000819050919050565b610e6e83610e39565b610e82610e7a82610e5b565b848454610ddd565b825550505050565b600090565b610e97610e8a565b610ea2818484610e65565b505050565b5b81811015610ec657610ebb600082610e8f565b600181019050610ea8565b5050565b601f821115610f0b57610edc81610dab565b610ee584610dc0565b81016020851015610ef4578190505b610f08610f0085610dc0565b830182610ea7565b50505b505050565b600082821c905092915050565b6000610f2e60001984600802610f10565b1980831691505092915050565b6000610f478383610f1d565b9150826002028217905092915050565b610f6082610898565b67ffffffffffffffff811115610f7957610f78610ac6565b5b610f838254610c7c565b610f8e828285610eca565b600060209050601f831160018114610fc15760008415610faf578287015190505b610fb98582610f3b565b865550611021565b601f198416610fcf86610dab565b60005b82811015610ff757848901518255600182019150602085019450602081019050610fd2565b868310156110145784890151611010601f891682610f1d565b8355505b6001600288020188555050505b505050505050565b7f4e487b7100000000000000000000000000000000000000000000000000000000600052601160045260246000fd5b600061106382610772565b91507fffffffffffffffffffffffffffffffffffffffffffffffffffffffffffffffff820361109557611094611029565b5b60018201905091905056fea2646970667358221220ad9dff17613d228ad25b216a20f0636daaf49b928f1ceb7297c71d689ea0389664736f6c634300081c0033",
  "linkReferences": {},
  "deployedLinkReferences": {}
}